{
  "address": "0x79F24948af9b088fF9F348947838cE50f3DfE7d9",
  "abi": [
    {
      "inputs": [],
      "stateMutability": "nonpayable",
      "type": "constructor"
    },
    {
      "inputs": [],
      "name": "admin",
      "outputs": [
        {
          "internalType": "address",
          "name": "",
          "type": "address"
        }
      ],
      "stateMutability": "view",
      "type": "function"
    },
    {
      "inputs": [],
      "name": "batchNumsMax",
      "outputs": [
        {
          "internalType": "uint256",
          "name": "",
          "type": "uint256"
        }
      ],
      "stateMutability": "view",
      "type": "function"
    },
    {
      "inputs": [
        {
          "internalType": "address",
          "name": "token",
          "type": "address"
        },
        {
          "internalType": "address[]",
          "name": "recipients",
          "type": "address[]"
        },
        {
          "internalType": "uint256[]",
          "name": "amounts",
          "type": "uint256[]"
        }
      ],
      "name": "batchTransfer",
      "outputs": [],
      "stateMutability": "nonpayable",
      "type": "function"
    },
    {
      "inputs": [
        {
          "internalType": "address",
          "name": "",
          "type": "address"
        }
      ],
      "name": "owners",
      "outputs": [
        {
          "internalType": "bool",
          "name": "",
          "type": "bool"
        }
      ],
      "stateMutability": "view",
      "type": "function"
    },
    {
      "inputs": [
        {
          "internalType": "uint256",
          "name": "_nums",
          "type": "uint256"
        }
      ],
      "name": "setBatchNumsMax",
      "outputs": [],
      "stateMutability": "nonpayable",
      "type": "function"
    },
    {
      "inputs": [
        {
          "internalType": "address",
          "name": "_owner",
          "type": "address"
        },
        {
          "internalType": "bool",
          "name": "_isOwner",
          "type": "bool"
        }
      ],
      "name": "setOwner",
      "outputs": [],
      "stateMutability": "nonpayable",
      "type": "function"
    },
    {
      "inputs": [
        {
          "internalType": "address",
          "name": "token",
          "type": "address"
        },
        {
          "internalType": "address",
          "name": "to",
          "type": "address"
        },
        {
          "internalType": "uint256",
          "name": "amount",
          "type": "uint256"
        }
      ],
      "name": "withdrawToken",
      "outputs": [],
      "stateMutability": "nonpayable",
      "type": "function"
    }
  ],
  "transactionHash": "0x5f813b6b2d1f894833321337ab623e8165d3e22ffef564c700d0b745453add77",
  "args": [],
  "numDeployments": 1,
  "solcInputHash": "79e710d1c2907be1cf4755a439396a49",
  "bytecode": "0x6080604052600a60015534801561001557600080fd5b50336000806101000a81548173ffffffffffffffffffffffffffffffffffffffff021916908373ffffffffffffffffffffffffffffffffffffffff1602179055506001600260003373ffffffffffffffffffffffffffffffffffffffff1673ffffffffffffffffffffffffffffffffffffffff16815260200190815260200160002060006101000a81548160ff021916908315150217905550611164806100bd6000396000f3fe608060405234801561001057600080fd5b506004361061007d5760003560e01c80631239ec8c1161005b5780631239ec8c146100ec578063516c731c14610108578063af6cd0bf14610124578063f851a440146101405761007d565b806301e3366714610082578063022914a71461009e5780631055355d146100ce575b600080fd5b61009c60048036038101906100979190610963565b61015e565b005b6100b860048036038101906100b391906109b6565b6103a7565b6040516100c591906109fe565b60405180910390f35b6100d66103c7565b6040516100e39190610a28565b60405180910390f35b61010660048036038101906101019190610afe565b6103cd565b005b610122600480360381019061011d9190610bbf565b610720565b005b61013e60048036038101906101399190610bff565b610809565b005b6101486108a1565b6040516101559190610c3b565b60405180910390f35b60008054906101000a900473ffffffffffffffffffffffffffffffffffffffff1673ffffffffffffffffffffffffffffffffffffffff163373ffffffffffffffffffffffffffffffffffffffff16146101ec576040517f08c379a00000000000000000000000000000000000000000000000000000000081526004016101e390610cb3565b60405180910390fd5b600073ffffffffffffffffffffffffffffffffffffffff168273ffffffffffffffffffffffffffffffffffffffff160361025b576040517f08c379a000000000000000000000000000000000000000000000000000000000815260040161025290610d45565b60405180910390fd5b600083905060008173ffffffffffffffffffffffffffffffffffffffff166370a08231306040518263ffffffff1660e01b815260040161029b9190610c3b565b602060405180830381865afa1580156102b8573d6000803e3d6000fd5b505050506040513d601f19601f820116820180604052508101906102dc9190610d7a565b905082811015610321576040517f08c379a000000000000000000000000000000000000000000000000000000000815260040161031890610df3565b60405180910390fd5b8173ffffffffffffffffffffffffffffffffffffffff1663a9059cbb85856040518363ffffffff1660e01b815260040161035c929190610e13565b6020604051808303816000875af115801561037b573d6000803e3d6000fd5b505050506040513d601f19601f8201168201806040525081019061039f9190610e51565b505050505050565b60026020528060005260406000206000915054906101000a900460ff1681565b60015481565b600260003373ffffffffffffffffffffffffffffffffffffffff1673ffffffffffffffffffffffffffffffffffffffff16815260200190815260200160002060009054906101000a900460ff16610459576040517f08c379a000000000000000000000000000000000000000000000000000000000815260040161045090610eca565b60405180910390fd5b8181905084849050146104a1576040517f08c379a000000000000000000000000000000000000000000000000000000000815260040161049890610f5c565b60405180910390fd5b6001548484905011156104e9576040517f08c379a00000000000000000000000000000000000000000000000000000000081526004016104e090610fc8565b60405180910390fd5b6000859050600080600090505b8484905081101561053b5784848281811061051457610513610fe8565b5b90506020020135826105269190611046565b915080806105339061107a565b9150506104f6565b50808273ffffffffffffffffffffffffffffffffffffffff166370a08231306040518263ffffffff1660e01b81526004016105769190610c3b565b602060405180830381865afa158015610593573d6000803e3d6000fd5b505050506040513d601f19601f820116820180604052508101906105b79190610d7a565b10156105f8576040517f08c379a00000000000000000000000000000000000000000000000000000000081526004016105ef90610df3565b60405180910390fd5b60005b86869050811015610716578273ffffffffffffffffffffffffffffffffffffffff1663a9059cbb88888481811061063557610634610fe8565b5b905060200201602081019061064a91906109b6565b87878581811061065d5761065c610fe8565b5b905060200201356040518363ffffffff1660e01b8152600401610681929190610e13565b6020604051808303816000875af11580156106a0573d6000803e3d6000fd5b505050506040513d601f19601f820116820180604052508101906106c49190610e51565b610703576040517f08c379a00000000000000000000000000000000000000000000000000000000081526004016106fa9061110e565b60405180910390fd5b808061070e9061107a565b9150506105fb565b5050505050505050565b60008054906101000a900473ffffffffffffffffffffffffffffffffffffffff1673ffffffffffffffffffffffffffffffffffffffff163373ffffffffffffffffffffffffffffffffffffffff16146107ae576040517f08c379a00000000000000000000000000000000000000000000000000000000081526004016107a590610cb3565b60405180910390fd5b80600260008473ffffffffffffffffffffffffffffffffffffffff1673ffffffffffffffffffffffffffffffffffffffff16815260200190815260200160002060006101000a81548160ff0219169083151502179055505050565b60008054906101000a900473ffffffffffffffffffffffffffffffffffffffff1673ffffffffffffffffffffffffffffffffffffffff163373ffffffffffffffffffffffffffffffffffffffff1614610897576040517f08c379a000000000000000000000000000000000000000000000000000000000815260040161088e90610cb3565b60405180910390fd5b8060018190555050565b60008054906101000a900473ffffffffffffffffffffffffffffffffffffffff1681565b600080fd5b600080fd5b600073ffffffffffffffffffffffffffffffffffffffff82169050919050565b60006108fa826108cf565b9050919050565b61090a816108ef565b811461091557600080fd5b50565b60008135905061092781610901565b92915050565b6000819050919050565b6109408161092d565b811461094b57600080fd5b50565b60008135905061095d81610937565b92915050565b60008060006060848603121561097c5761097b6108c5565b5b600061098a86828701610918565b935050602061099b86828701610918565b92505060406109ac8682870161094e565b9150509250925092565b6000602082840312156109cc576109cb6108c5565b5b60006109da84828501610918565b91505092915050565b60008115159050919050565b6109f8816109e3565b82525050565b6000602082019050610a1360008301846109ef565b92915050565b610a228161092d565b82525050565b6000602082019050610a3d6000830184610a19565b92915050565b600080fd5b600080fd5b600080fd5b60008083601f840112610a6857610a67610a43565b5b8235905067ffffffffffffffff811115610a8557610a84610a48565b5b602083019150836020820283011115610aa157610aa0610a4d565b5b9250929050565b60008083601f840112610abe57610abd610a43565b5b8235905067ffffffffffffffff811115610adb57610ada610a48565b5b602083019150836020820283011115610af757610af6610a4d565b5b9250929050565b600080600080600060608688031215610b1a57610b196108c5565b5b6000610b2888828901610918565b955050602086013567ffffffffffffffff811115610b4957610b486108ca565b5b610b5588828901610a52565b9450945050604086013567ffffffffffffffff811115610b7857610b776108ca565b5b610b8488828901610aa8565b92509250509295509295909350565b610b9c816109e3565b8114610ba757600080fd5b50565b600081359050610bb981610b93565b92915050565b60008060408385031215610bd657610bd56108c5565b5b6000610be485828601610918565b9250506020610bf585828601610baa565b9150509250929050565b600060208284031215610c1557610c146108c5565b5b6000610c238482850161094e565b91505092915050565b610c35816108ef565b82525050565b6000602082019050610c506000830184610c2c565b92915050565b600082825260208201905092915050565b7f4e6f742061646d696e0000000000000000000000000000000000000000000000600082015250565b6000610c9d600983610c56565b9150610ca882610c67565b602082019050919050565b60006020820190508181036000830152610ccc81610c90565b9050919050565b7f446f6e277420616c6c6f7720746f2073656e6420746f207a65726f206164647260008201527f6573730000000000000000000000000000000000000000000000000000000000602082015250565b6000610d2f602383610c56565b9150610d3a82610cd3565b604082019050919050565b60006020820190508181036000830152610d5e81610d22565b9050919050565b600081519050610d7481610937565b92915050565b600060208284031215610d9057610d8f6108c5565b5b6000610d9e84828501610d65565b91505092915050565b7f4e6f7420656e6f75676820746f6b656e7320696e20636f6e7472616374000000600082015250565b6000610ddd601d83610c56565b9150610de882610da7565b602082019050919050565b60006020820190508181036000830152610e0c81610dd0565b9050919050565b6000604082019050610e286000830185610c2c565b610e356020830184610a19565b9392505050565b600081519050610e4b81610b93565b92915050565b600060208284031215610e6757610e666108c5565b5b6000610e7584828501610e3c565b91505092915050565b7f4e6f74206f776e65720000000000000000000000000000000000000000000000600082015250565b6000610eb4600983610c56565b9150610ebf82610e7e565b602082019050919050565b60006020820190508181036000830152610ee381610ea7565b9050919050565b7f526563697069656e747320616e6420616d6f756e7473206c656e677468206d6960008201527f736d617463680000000000000000000000000000000000000000000000000000602082015250565b6000610f46602683610c56565b9150610f5182610eea565b604082019050919050565b60006020820190508181036000830152610f7581610f39565b9050919050565b7f4f766572666c6f77206e756d7320617420612074696d65000000000000000000600082015250565b6000610fb2601783610c56565b9150610fbd82610f7c565b602082019050919050565b60006020820190508181036000830152610fe181610fa5565b9050919050565b7f4e487b7100000000000000000000000000000000000000000000000000000000600052603260045260246000fd5b7f4e487b7100000000000000000000000000000000000000000000000000000000600052601160045260246000fd5b60006110518261092d565b915061105c8361092d565b925082820190508082111561107457611073611017565b5b92915050565b60006110858261092d565b91507fffffffffffffffffffffffffffffffffffffffffffffffffffffffffffffffff82036110b7576110b6611017565b5b600182019050919050565b7f5472616e73666572206661696c65640000000000000000000000000000000000600082015250565b60006110f8600f83610c56565b9150611103826110c2565b602082019050919050565b60006020820190508181036000830152611127816110eb565b905091905056fea2646970667358221220592ede816a346b4958755373cdefa0fd2721cab3b547eb2aa1e92921642af01964736f6c63430008110033",
  "devdoc": {
    "kind": "dev",
    "methods": {},
    "version": 1
  },
  "userdoc": {
    "kind": "user",
    "methods": {},
    "version": 1
  },
  "storageLayout": {
    "storage": [
      {
        "astId": 2647,
        "contract": "contracts/BatchTransfer.sol:BatchTransfer",
        "label": "admin",
        "offset": 0,
        "slot": "0",
        "type": "t_address"
      },
      {
        "astId": 2650,
        "contract": "contracts/BatchTransfer.sol:BatchTransfer",
        "label": "batchNumsMax",
        "offset": 0,
        "slot": "1",
        "type": "t_uint256"
      },
      {
        "astId": 2654,
        "contract": "contracts/BatchTransfer.sol:BatchTransfer",
        "label": "owners",
        "offset": 0,
        "slot": "2",
        "type": "t_mapping(t_address,t_bool)"
      }
    ],
    "types": {
      "t_address": {
        "encoding": "inplace",
        "label": "address",
        "numberOfBytes": "20"
      },
      "t_bool": {
        "encoding": "inplace",
        "label": "bool",
        "numberOfBytes": "1"
      },
      "t_mapping(t_address,t_bool)": {
        "encoding": "mapping",
        "key": "t_address",
        "label": "mapping(address => bool)",
        "numberOfBytes": "32",
        "value": "t_bool"
      },
      "t_uint256": {
        "encoding": "inplace",
        "label": "uint256",
        "numberOfBytes": "32"
      }
    }
  }
}